:020000040000FA
:06000000C4EF01F0120044
:020006000000F8
:08000800400ED36E8294946A4D
:10001000926A806A3C0E936E816E0F0EC16E840EE2
:10002000E66E81EC01F0E5529A0EE66E9CEC01F072
:10003000E5529A0EE66EE8EC00F0E5528150040BB2
:100040000FE18150080B0CE18150100B09E1360ED5
:10005000E66E010E63D8E66E23EC01F0E552EDD7B3
:100060008150040B0AE08150080B07E18150100B0E
:1000700004E1190EE66EE66A39D08150040B0BE1FB
:100080008150080B08E08150100B05E1670EE66E09
:10009000020EE66E19D08150040B0AE08150080B65
:1000A00007E08150100B04E1670EE66E020E1DD0D2
:1000B0008150040B0EE18150080B0BE18150100BB5
:1000C00008E0190EE66EE66A2FD8190EE66EE66AAB
:1000D00020D08150040B0FE08150080B0CE18150BF
:1000E000100B09E0360EE66E010EE66E1DD8670EA7
:1000F000E66E020E0DD08150040BA0E18150080B7A
:100100009DE08150100B9AE0670EE66E020E06D855
:10011000E66E23EC01F0E552E55290D7E66E04D886
:10012000360EE66E010E120052EC01F0E552E55279
:020130001200BB
:0E013200060EF66E000EF76E000EF86E00015F
:100140000900F550856F0900F550866F03E185675A
:1001500001D03DD00900F550806F0900F550816F46
:100160000900F550826F09000900F550E96E090099
:10017000F550EA6E090009000900F550836F090087
:10018000F550846F09000900F6CF87F0F7CF88F0AB
:10019000F8CF89F080C0F6FF81C0F7FF82C0F8FF7A
:1001A0000001835302E1845307E00900F550EE6E2D
:1001B0008307F8E28407F9D787C0F6FF88C0F7FF06
:1001C00089C0F8FF00018507000E865BBFD71200CB
:1001D000D9CFE6FFDACFE6FFE1CFD9FFE2CFDAFFF2
:1001E000E652E652E652E652F8CF02F0F6CF03F0BE
:1001F0000C0EBA6E050EF66EF76A300EF86E080039
:10020000F550010B03E0010EDB6802D0010EDB6A42
:10021000010EDB5002E0949201D09396CA94FD0E39
:10022000DB50CB6ECA8402C0F8FF03C0F6FF040E99
:10023000E15C02E2E16AE552E16EE552E5CFDAFF08
:06024000E7CFD9FF120018
:0A024600D9CFE6FFDACFE6FFE1CFE3
:10025000D9FFE2CFDAFFE652E652FC0EDBCF02F026
:10026000FD0EDBCF03F0060ED89002360336E8040D
:10027000FBE102C0DEFF03C0DDFF010EDB50BB6E01
:10028000DF50E840E8403F0B300B026ECF0EBA144F
:100290000210BA6EE552E552E552E5CFDAFFE7CF3C
:0402A000D9FF120070
:0C02A400D9CFE6FFDACFE6FFE1CFD9FFAB
:1002B000E2CFDAFFE652E652FC0EDBCF02F0FD0E93
:1002C000DBCF03F0060ED89002360336E804FBE1DC
:1002D00002C0DEFF03C0DDFF010EDB50BE6EDF504B
:1002E000E840E8403F0B300B026ECF0EBD14021009
:1002F000BD6EE552E552E552E5CFDAFFE7CFD9FF13
:020300001200E9
:0E030200D9CFE6FFDACFE6FFE1CFD9FFE2CF99
:10031000DAFFFD0EDB50FB0BCA6ECC6A9E92FD0E1F
:10032000DBAE02D09D8201D09D92CA84E552E5CF1A
:08033000DAFFE7CFD9FF12004C
:08033800D9CFE6FFDACFE6FFA2
:10034000E1CFD9FFE2CFDAFF0C0EBD129494CA942C
:10035000FD0EDB50CB6ECA84E552E5CFDAFFE7CF66
:08036000D9FF12009494120071
:08036800000EF36E00EE00F040
:10037000060E01D81200EA6002D0EE6AFCD7F350F4
:08038000E9601200EE6AFCD7EF
:0803880015EE00F025EE00F077
:10039000F86A019C99EC00F0D2EC01F004EC00F05A
:0403A000FBD7120075
:0203A400120045
:020000040030CA
:0100010008F6
:010003001EDE
:010006008178
:00000001FF
